S01000006F6E6C696E6531322E737265632C
S11300000C942A000C9447000C9447000C9447006D
S11300100C9447000C9447000C9447000C94470040
S11300200C9447000C9447000C9447000C94470030
S11300300C9447000C9447000C9447000C94470020
S11300400C9447000C9447000C9447000C94470010
S11300500C94470011241FBECFE5D8E0DEBFCDBF0E
S113006011E0A0E6B0E0E8EEF7E502C005900D92DD
S1130070A03AB107D9F721E0A0EAB1E001C01D928E
S1130080A03AB207E1F70E9489010C94F22B0C9478
S11300900000CF93C82F60E089E00E940A036C2F10
S11300A0661F6627661F87E00E940A03C6FB662751
S11300B060F98FE00E940A03C5FB662760F98FE1AF
S11300C00E940A03C4FB662760F982E00E940A03C7
S11300D061E088E00E940A038FEC97E00197F1F752
S11300E000C0000060E088E00E940A038FEC97E003
S11300F00197F1F700C00000C3FB662760F987E0B1
S11301000E940A03C2FB662760F98FE00E940A037B
S1130110C1FB662760F98FE10E940A036C2F6170AE
S113012082E00E940A0361E088E00E940A038FECE7
S113013097E00197F1F700C0000060E088E00E94BA
S11301400A038FEC97E00197F1F700C00000CF910C
S11301500895CF93C82F61E089E00E940A036C2FB1
S1130160661F6627661F87E00E940A03C6FB662790
S113017060F98FE00E940A03C5FB662760F98FE1EE
S11301800E940A03C4FB662760F982E00E940A0306
S113019061E088E00E940A038FEC97E00197F1F791
S11301A000C0000060E088E00E940A038FEC97E042
S11301B00197F1F700C00000C3FB662760F987E0F0
S11301C00E940A03C2FB662760F98FE00E940A03BB
S11301D0C1FB662760F98FE10E940A036C2F6170EE
S11301E082E00E940A0361E088E00E940A038FEC27
S11301F097E00197F1F700C0000060E088E00E94FA
S11302000A038FEC97E00197F1F700C00000CF914B
S113021008952FE788E391E0215080409040E1F772
S113022000C0000082E00E94490088E20E94490068
S11302308CE00E94490081E00E9449008FEC97E025
S11302400197F1F700C0000086E00E94490008957C
S11302500E94A90008950F931F93CF938C01C0E0CF
S113026003C00E942801CF5FF801EC0FF11D8081CB
S11302708111F7CFCF911F910F910895811105C07E
S1130280862F80680E9449000895813021F480EC13
S1130290860F0E9449000895CF92DF92EF92FF9259
S11302A00F931F93CF93DF93CDB7DEB7CA56D1090F
S11302B00FB6F894DEBF0FBECDBF7C016B018A017F
S11302C0CE0101960E94AA0360E070E0CE0101967F
S11302D00E944C04A601B701CE0101960E940A288F
S11302E0B801CE0101960E94F528CE0101960E9424
S11302F0B003C659DF4F0FB6F894DEBF0FBECDBFB3
S1130300DF91CF911F910F91FF90EF90DF90CF90ED
S11303100895CF93DF93CDB7DEB7CC56D1090FB68E
S1130320F894DEBF0FBECDBF8BE0E4E9F0E08E01B0
S11303300F5F1F4FD80101900D928A95E1F70E943B
S1130340FA020E9409010E948F03F8010190002023
S1130350E9F73197BF01601B710BAE01445F5F4F3A
S1130360C8010E944C0110E022C0812F90E0ECE013
S1130370F0E0EC0FFD1FE80FF91F2081880F991F93
S11303801F922F9320E830E03F932F932CE230E02C
S11303902C0F3D1F820F931F9F938F930E94082958
S11303A01F5F0F900F900F900F900F900F901032CF
S11303B0E0F2AD961FAEAD9760E070E080E090E0B3
S11303C00E943E0185E890E00E942B01CE01019637
S11303D00E942B0160E070E081E090E00E943E0109
S11303E08CE890E00E942B01CE018C960E942B0198
S11303F082E990E00E942B01FFCF982F9695969565
S113040096958770613009F455C020F0623009F484
S1130410A1C008959130C1F028F0923039F19330A1
S1130420B9F108954AB321E030E0B90102C0660F82
S1130430771F8A95E2F7CB01942F982B9ABB9BB335
S1130440809589238BBB089547B321E030E0B9013F
S113045002C0660F771F8A95E2F7CB01942F982B81
S113046097BB98B38095892388BB089544B321E052
S113047030E0B90102C0660F771F8A95E2F7CB011D
S1130480942F982B94BB95B38095892385BB0895AD
S113049041B321E030E0B90102C0660F771F8A95AD
S11304A0E2F7CB01942F982B91BB92B380958923CB
S11304B082BB08959130C1F028F0923039F1933025
S11304C0B9F108954AB321E030E0B90102C0660FE2
S11304D0771F8A95E2F7CB018095942F98239ABBD6
S11304E09BB389238BBB089547B321E030E0B90166
S11304F002C0660F771F8A95E2F7CB018095942F8F
S1130500982397BB98B3892388BB089544B321E00B
S113051030E0B90102C0660F771F8A95E2F7CB017C
S11305208095942F982394BB95B3892385BB089514
S113053041B321E030E0B90102C0660F771F8A950C
S1130540E2F7CB018095942F982391BB92B3892332
S113055082BB08959130C1F028F0923039F1933084
S1130560B9F108954AB321E030E0B90102C0660F41
S1130570771F8A95E2F7CB01962F909594239ABB27
S11305809BB3892B8BBB089547B321E030E0B901BD
S113059002C0660F771F8A95E2F7CB01962F9095DC
S11305A0942397BB98B3892B88BB089544B321E067
S11305B030E0B90102C0660F771F8A95E2F7CB01DC
S11305C0962F9095942394BB95B3892B85BB08955E
S11305D041B321E030E0B90102C0660F771F8A956C
S11305E0E2F7CB01962F9095942391BB92B3892B7C
S11305F082BB0895CF93C0E009C0EC2FF0E0E05A2D
S1130600FF4F60818C2F0E94FD01CF5FC032A8F3A1
S1130610CF910895982F9695969596958770613009
S1130620E1F5913099F028F09230E9F0933041F1FE
S113063008954BB321E030E0B90102C0660F771F83
S11306408A95E2F7CB01842B8BBB089548B321E054
S113065030E0B90102C0660F771F8A95E2F7CB013B
S1130660842B88BB089545B321E030E0B90102C072
S1130670660F771F8A95E2F7CB01842B85BB08951B
S113068042B321E030E0B90102C0660F771F8A95BA
S1130690E2F7CB01842B82BB089561113FC09130F6
S11306A0A1F028F09230F9F0933059F108954BB34A
S11306B021E030E0B90102C0660F771F8A95E2F7A6
S11306C0CB01809584238BBB089548B321E030E0AF
S11306D0B90102C0660F771F8A95E2F7CB018095B6
S11306E0842388BB089545B321E030E0B90102C0FA
S11306F0660F771F8A95E2F7CB018095842385BB2B
S1130700089542B321E030E0B90102C0660F771FBB
S11307108A95E2F7CB018095842382BB089583E315
S113072089B98BB18D7F8BB98AB188608AB98AB156
S113073080618AB90895FC01892B59F0611571050E
S113074021F408951082BC013196CB010197672BE7
S1130750C9F708952AE6FC0111922A95E9F708954C
S1130760009721F06AE670E00E949B030895FC0163
S113077010821182128213821482158216821782C9
S11307806115710509F041C087E696EEA9E0BAE665
S113079080879187A287B38785E89EEAA7E6BBEBAB
S11307A084879587A687B78782E793EFAEE6BCE395
S11307B0808B918BA28BB38B8AE395EFAFE4B5EA80
S11307C0848B958BA68BB78B8FE792E5AEE0B1E572
S11307D0808F918FA28FB38F8CE898E6A5E0BBE958
S11307E0848F958FA68FB78F8BEA99EDA3E8BFE12D
S11307F080A391A3A2A3B3A389E19DECA0EEBBE5E2
S113080084A395A3A6A3B7A340C088ED9EE9A5E061
S1130810B1EC80879187A287B38787E095EDACE739
S1130820B6E384879587A687B78787E19DEDA0E720
S1130830B0E3808B918BA28BB38B89E399E5AEE017
S1130840B7EF848B958BA68BB78B81E39BE0A0ECF1
S1130850BFEF808F918FA28FB38F81E195E1A8E5DF
S1130860B8E6848F958FA68FB78F87EA9FE8A9EFA4
S1130870B4E680A391A3A2A3B3A384EA9FE4AAEF5E
S1130880BEEB84A395A3A6A3B7A3E859FF4F718336
S1130890608380E090E008950E94B70308952F924A
S11308A03F924F925F926F927F928F929F92AF92FC
S11308B0BF92CF92DF92EF92FF920F931F93CF9349
S11308C0DF93CDB7DEB7C456D1400FB6F894DEBF80
S11308D00FBECDBFCD59DE4F99838883C356D14017
S11308E080E090E0CD59DE4F28813981C356D14054
S11308F01FC0FC013296EE0FFF1FEE0FFF1FE20F29
S1130900F31FC080D180E280F380FC01EE5BFF4FD7
S1130910EE0FFF1FEE0FFF1F44244394512C4C0E87
S11309205D1EE40DF51DC082D182E282F382019640
S113093088309105F0F220E030E03CC0F901EE0F80
S1130940FF1FEE0FFF1FE60FF71F808190E0A0E06E
S1130950B0E0F82EEE24DD24CC249181892F90E0A0
S1130960A0E0B0E0DC01992788278C299D29AE29D5
S1130970BF29C280D12CE12CF12CFE2CED2CDC2CD7
S1130980CC248C299D29AE29BF294381842BF901CC
S11309903296EE0FFF1FEE0FFF1F66246394712C37
S11309A06C0E7D1EE60DF71D80839183A283B383B5
S11309B02F5F3F4F2031310508F2212C312C0C944C
S11309C01812CB5DDE4F88809980AA80BB80C55207
S11309D0D140C75EDE4F88819981AA81BB81C9510C
S11309E0D140AC01BD01689415F87695679557958B
S11309F047951694D1F76C017D010B2EBAE1CC0C0E
S1130A00DD1CEE1CFF1CBA95D1F7B02DC42AD52AE3
S1130A10E62AF72A8C019D010F2EFBE036952795D7
S1130A2017950795FA95D1F7F02DAC01BD01032E6A
S1130A3035E1440F551F661F771F3A95D1F7302DC6
S1130A40402B512B622B732BC426D526E626F72682
S1130A50AC01BD01440F551F661F771F440F551F7E
S1130A60661F771F440F551F661F771F440F551FBE
S1130A70661F771F440F551F661F771F440F551FAE
S1130A80661F771F440F551F661F771F8C019D013A
S1130A900F2EF9E13695279517950795FA95D1F715
S1130AA0F02D042B152B262B372B0C251D252E253D
S1130AB03F25080D191D2A1D3B1DC35EDE4F88808E
S1130AC09980AA80BB80CD51D140CB5BDE4F888218
S1130AD09982AA82BB82C554D140CF5DDE4FC880C3
S1130AE0D980EA80FB80C152D140B501A4014C25D4
S1130AF05D256E257F25482359236A237B234C25B6
S1130B005D256E257F25040F151F261F371FF10154
S1130B10EE0FFF1FEE0FFF1FE156FF4F8080918005
S1130B20A280B380080D191D2A1D3B1DA1014E5F33
S1130B305F4FCB5CDE4F59834883C553D140440F8C
S1130B40551F440F551FC35CDE4F59834883CD5353
S1130B50D140E1E0F0E0EC0FFD1FE40FF51F8080D1
S1130B609180A280B380080D191D2A1D3B1DC75F0B
S1130B70DE4F488059806A807B80C950D140C75D70
S1130B80DE4F488259826A827B82C952D140B301C6
S1130B90A2017695679557954795769567955795EC
S1130BA0479553014201072E7EE1880C991CAA1C2B
S1130BB0BB1C7A95D1F7702D842A952AA62AB72AC8
S1130BC0032E3DE076946794579447943A95D1F771
S1130BD0302DC75DDE4F488159816A817B81C952BE
S1130BE0D140032E33E1440F551F661F771F3A95FA
S1130BF0D1F7302D442955296629772948255925C7
S1130C006A257B25C75DDE4F488059806A807B80DA
S1130C10C952D140032E3AE0440C551C661C771C83
S1130C203A95D1F7302DC75DDE4F88809980AA8030
S1130C30BB80C952D140072E76E1B694A79497940D
S1130C4087947A95D1F7702D84289528A628B728FB
S1130C50240135014426552666267726CF5CDE4FCF
S1130C60488259826A827B82C153D140C35FDE4F7E
S1130C70688079808A809B80CD50D140CF5BDE4FE5
S1130C80688279828A829B82C154D140C75DDE4FDB
S1130C90488059806A807B80C952D140CF5BDE4F47
S1130CA088809980AA80BB80C154D14048205920B3
S1130CB06A207B20CF5EDE4F488159816A817B8127
S1130CC0C151D140C35DDE4F488359836A837B831E
S1130CD0CD52D140C75DDE4F488159816A817B8105
S1130CE0C952D140482959296A297B29C35DDE4F5D
S1130CF088809980AA80BB80CD52D1404821592157
S1130D006A217B214429552966297729CF5CDE4F46
S1130D1088809980AA80BB80C153D140840E951EDF
S1130D20A61EB71ECB5EDE4F488059806A807B804A
S1130D30C551D140400E511E621E731EB901A80157
S1130D40480D591D6A1D7B1DC75CDE4F48835983BE
S1130D506A837B83C953D140B301A201689415F817
S1130D6076956795579547951694D1F753014201A7
S1130D70072E7AE1880C991CAA1CBB1C7A95D1F722
S1130D80702D842A952AA62AB72A930182010F2E50
S1130D90FBE03695279517950795FA95D1F7F02D31
S1130DA0B301A201032E35E1440F551F661F771FBF
S1130DB03A95D1F7302D402B512B622B732B84267F
S1130DC09526A626B72693018201000F111F221F24
S1130DD0331F000F111F221F331F000F111F221F6B
S1130DE0331F000F111F221F331F000F111F221F5B
S1130DF0331F000F111F221F331F000F111F221F4B
S1130E00331FB301A201032E39E1769567955795F7
S1130E1047953A95D1F7302D402B512B622B732BEC
S1130E20482559256A257B254C0D5D1D6E1D7F1DAA
S1130E30CB5BDE4FC880D980EA80FB80C554D140AB
S1130E40C826D926EA26FB26C420D520E620F7208A
S1130E50CB5BDE4F088119812A813B81C554D14087
S1130E600C251D252E253F256A017B01C00ED11EB0
S1130E70E21EF31EF1013196EE0FFF1FEE0FFF1F6E
S1130E80E156FF4F80809180A280B380C80CD91CAA
S1130E90EA1CFB1C91012D5F3F4FB901660F771FC0
S1130EA0660F771FC95ADE4F79836883C755D140CF
S1130EB0E1E0F0E0EC0FFD1FE60FF71F808091806A
S1130EC0A280B380C80CD91CEA1CFB1CC75CDE4F93
S1130ED0488159816A817B81C953D1407695679550
S1130EE0579547957695679557954795C75CDE4F17
S1130EF088809980AA80BB80C953D140072E7EE1A7
S1130F00880C991CAA1CBB1C7A95D1F7702D842AD5
S1130F10952AA62AB72AC75CDE4F088119812A813F
S1130F203B81C953D1400F2EFDE036952795179587
S1130F300795FA95D1F7F02DC75CDE4F48815981AA
S1130F406A817B81C953D140032E33E1440F551F7D
S1130F50661F771F3A95D1F7302D402B512B622B0A
S1130F60732B482559256A257B25C75CDE4F0881EC
S1130F7019812A813B81C953D1400F2EFAE0000F19
S1130F80111F221F331FFA95D1F7F02DC75CDE4FD6
S1130F9088809980AA80BB80C953D140072E76E10E
S1130FA0B694A794979487947A95D1F7702D802A54
S1130FB0912AA22AB32A95018401042715272627FA
S1130FC03727CF5CDE4F088319832A833B83C153C1
S1130FD0D140C75DDE4F088119812A813B81C95206
S1130FE0D140C75CDE4F488159816A817B81C953F6
S1130FF0D1400423152326233723C75DDE4F4881C0
S113100059816A817B81C952D140C75CDE4F888097
S11310109980AA80BB80C953D140482959296A299B
S11310207B29CF5BDE4F88809980AA80BB80C15426
S1131030D140482159216A217B21402B512B622B1D
S1131040732BCF5CDE4F88809980AA80BB80C1530C
S1131050D140840E951EA61EB71EC35DDE4F0881C7
S113106019812A813B81CD52D1400C0D1D1D2E1DAD
S11310703F1DC35DDE4F088319832A833B83CD5212
S1131080D140A7019601280D391D4A1D5B1DCF5C77
S1131090DE4F288339834A835B83C153D140C35DC8
S11310A0DE4F488159816A817B81CD52D140689459
S11310B015F876956795579547951694D1F7C35DBE
S11310C0DE4F88809980AA80BB80CD52D140072E04
S11310D07AE1880C991CAA1CBB1C7A95D1F7702D57
S11310E0842A952AA62AB72AC35DDE4F088119816E
S11310F02A813B81CD52D1400F2EFBE036952795B6
S113110017950795FA95D1F7F02DC35DDE4F488109
S113111059816A817B81CD52D140032E35E1440F40
S1131120551F661F771F3A95D1F7302D402B512B51
S1131130622B732B84269526A626B726C35DDE4F25
S1131140C880D980EA80FB80CD52D140CC0CDD1C14
S1131150EE1CFF1CCC0CDD1CEE1CFF1CCC0CDD1C9F
S1131160EE1CFF1CCC0CDD1CEE1CFF1CCC0CDD1C8F
S1131170EE1CFF1CCC0CDD1CEE1CFF1CCC0CDD1C7F
S1131180EE1CFF1CC35DDE4F488159816A817B815F
S1131190CD52D140032E39E1769567955795479501
S11311A03A95D1F7302D4C295D296E297F294825A0
S11311B059256A257B25CB5BDE4F88809980AA80E0
S11311C0BB80C554D140840E951EA61EB71EAC012B
S11311D0BD014425552566257725C35DDE4FC880AE
S11311E0D980EA80FB80CD52D1404C215D216E2113
S11311F07F218C019D010427152726273727B50158
S1131200A401400F511F621F731FC35CDE4FE881AE
S1131210F981CD53D140E156FF4F80809180A28067
S1131220B380480D591D6A1D7B1DCB5CDE4FE881E0
S1131230F981C553D1403296EE0FFF1FEE0FFF1F09
S1131240EE24E394F12CEC0EFD1EEE0DFF1D8080C8
S11312509180A280B380840E951EA61EB71ECF5C1B
S1131260DE4F488159816A817B81C153D140769593
S11312706795579547957695679557954795CF5CAC
S1131280DE4FC880D980EA80FB80C153D1400B2E49
S1131290BEE1CC0CDD1CEE1CFF1CBA95D1F7B02DC1
S11312A0C42AD52AE62AF72ACF5CDE4F08811981A1
S11312B02A813B81C153D1400F2EFDE036952795FD
S11312C017950795FA95D1F7F02DCF5CDE4F48813D
S11312D059816A817B81C153D140032E33E1440F8C
S11312E0551F661F771F3A95D1F7302D402B512B90
S11312F0622B732B4C255D256E257F25CF5CDE4F3D
S1131300088119812A813B81C153D1400F2EFAE013
S1131310000F111F221F331FFA95D1F7F02DCF5C58
S1131320DE4FC880D980EA80FB80C153D1400B2EA8
S1131330B6E1F694E794D794C794BA95D1F7B02D53
S1131340C02AD12AE22AF32A970186010427152705
S113135026273727CB5CDE4F088319832A833B83F8
S1131360C553D140C75CDE4F088119812A813B8176
S1131370C953D140CF5CDE4F488159816A817B815A
S1131380C153D1400423152326233723C75CDE4FE2
S1131390488159816A817B81C953D140CF5CDE4F3A
S11313A0C880D980EA80FB80C153D1404C295D2993
S11313B06E297F29C75DDE4FC880D980EA80FB8013
S11313C0C952D1404C215D216E217F21402B512BEC
S11313D0622B732BCB5CDE4FE880F9800A811B8182
S11313E0C553D1404E0D5F1D601F711FCF5BDE4F93
S11313F0088119812A813B81C154D140080D191DEE
S11314002A1D3B1DCF5BDE4F088319832A833B8350
S1131410C154D14075016401C40ED51EE61EF71EE9
S1131420CB5BDE4FC882D982EA82FB82C554D140AD
S1131430B901A801689415F876956795579547956D
S11314401694D1F7680179010B2EBAE1CC0CDD1C9E
S1131450EE1CFF1CBA95D1F7B02DC42AD52AE62A72
S1131460F72A0F2EFBE03695279517950795FA95E1
S1131470D1F7F02DCF5BDE4F488159816A817B81A2
S1131480C154D140032E35E1440F551F661F771F09
S11314903A95D1F7302D402B512B622B732BC42658
S11314A0D526E626F726CF5BDE4F088119812A81EF
S11314B03B81C154D140000F111F221F331F000F65
S11314C0111F221F331F000F111F221F331F000F74
S11314D0111F221F331F000F111F221F331F000F64
S11314E0111F221F331F000F111F221F331FCF5B39
S11314F0DE4F488159816A817B81C154D140032EDA
S113150039E176956795579547953A95D1F7302DFA
S1131510402B512B622B732B4C255D256E257F258B
S1131520480F591F6A1F7B1FC35DDE4F8881998155
S1131530AA81BB81CD52D14084259525A625B72506
S1131540CF5BDE4FE880F9800A811B81C154D14012
S11315508E219F21A023B1239301820108271927FB
S11315602A273B27DB01CA01800F911FA21FB31F4B
S1131570C95ADE4FE881F981C755D140E156FF4F82
S11315800081118122813381800F911FA21FB31F1B
S113159091012B5F3F4F8901000F111F000F111F95
S11315A0C35CDE4F19830883CD53D140E1E0F0E002
S11315B0EC0FFD1FE00FF11F0081118122813381A7
S11315C0800F911FA21FB31FCB5BDE4F488159814F
S11315D06A817B81C554D140769567955795479527
S11315E07695679557954795CB5BDE4F08811981B2
S11315F02A813B81C554D1400F2EFEE1000F111FFB
S1131600221F331FFA95D1F7F02D042B152B262B0F
S1131610372BCB5BDE4FC880D980EA80FB80C55472
S1131620D1400B2EBDE0F694E794D794C794BA95B5
S1131630D1F7B02DCB5BDE4F488159816A817B8124
S1131640C554D140032E33E1440F551F661F771F45
S11316503A95D1F7302D4C295D296E297F294027F1
S1131660512762277327CB5BDE4FC880D980EA807D
S1131670FB80C554D1400B2EBAE0CC0CDD1CEE1C13
S1131680FF1CBA95D1F7B02DCB5BDE4F08811981D1
S11316902A813B81C554D1400F2EF6E1369527951A
S11316A017950795FA95D1F7F02D0C291D292E29A8
S11316B03F290427152726273727CF5CDE4FC8800C
S11316C0D980EA80FB80C153D140CB5BDE4F488197
S11316D059816A817B81C554D140C422D522E62236
S11316E0F722CF5CDE4F488159816A817B81C153E7
S11316F0D140CB5BDE4F88809980AA80BB80C554E3
S1131700D140482959296A297B29C75CDE4F888042
S11317109980AA80BB80C953D140482159216A21AC
S11317207B214C295D296E297F29400F511F621F9F
S1131730731FC75DDE4FA880B980CA80DB80C952A1
S1131740D140A80EB91ECA1EDB1EC75DDE4FA8829B
S1131750B982CA82DB82C952D1406C017D01C40EB8
S1131760D51EE61EF71ECB5CDE4FC882D982EA8204
S1131770FB82C553D140C75DDE4F88819981AA8120
S1131780BB81C952D140689415F8B695A795979531
S113179087951694D1F7C75DDE4F088119812A8198
S11317A03B81C952D1400F2EFAE1000F111F221FB5
S11317B0331FFA95D1F7F02D082B192B2A2B3B2B2D
S11317C0C75DDE4F488159816A817B81C952D1400E
S11317D0032E3BE076956795579547953A95D1F753
S11317E0302DC75DDE4F88819981AA81BB81C952A2
S11317F0D140072E75E1880F991FAA1FBB1F7A9548
S1131800D1F7702D842B952BA62BB72B08271927DE
S11318102A273B27C75DDE4F488159816A817B8136
S1131820C952D140440F551F661F771F440F551FDF
S1131830661F771F440F551F661F771F440F551FE0
S1131840661F771F440F551F661F771F440F551FD0
S1131850661F771F440F551F661F771FC75DDE4F36
S113186088819981AA81BB81C952D140072E79E12F
S1131870B695A795979587957A95D1F7702D842B72
S1131880952BA62BB72B80279127A227B327840D4E
S1131890951DA61DB71DC35DDE4F488059806A8023
S11318A07B80CD52D140CF5BDE4FE880F9800A8146
S11318B01B81C154D1404E245F2460267126C75D2C
S11318C0DE4F088119812A813B81C952D1404022CF
S11318D0512262227322C35DDE4F488159816A819D
S11318E07B81CD52D14044255525662577252C0191
S11318F03D01440E551E661E771EF1013496EE0F0F
S1131900FF1FEE0FFF1FE156FF4F0081118122815F
S11319103381400E511E621E731EC10106969C0146
S1131920220F331F220F331FC95ADE4F39832883F6
S1131930C755D140E1E0F0E0EC0FFD1FE20FF31FCB
S113194080819181A281B38193018201080F191FC3
S11319502A1F3B1FCB5CDE4F88819981AA81BB8102
S1131960C553D140B695A79597958795B695A795F4
S113197097958795CB5CDE4F88809980AA80BB8041
S1131980C553D140072E7EE1880C991CAA1CBB1CB0
S11319907A95D1F7702D882A992AAA2ABB2ACB5C7A
S11319A0DE4F488159816A817B81C553D140032E22
S11319B03DE076956795579547953A95D1F7302D43
S11319C0CB5CDE4F88819981AA81BB81C553D1400C
S11319D0072E73E1880F991FAA1FBB1F7A95D1F7B1
S11319E0702D842B952BA62BB72B88259925AA25FA
S11319F0BB25CB5CDE4F488159816A817B81C5530D
S1131A00D140032E3AE0440F551F661F771F3A95C5
S1131A10D1F7302DCB5CDE4F88809980AA80BB80C3
S1131A20C553D140072E76E1B694A7949794879432
S1131A307A95D1F7702D842A952AA62AB72A882662
S1131A409926AA26BB26CB5BDE4F88819981AA8181
S1131A50BB81C554D140CB5CDE4F488159816A813A
S1131A607B81C553D14084239523A623B723CB5B25
S1131A70DE4FC880D980EA80FB80C554D140C42A97
S1131A80D52AE62AF72ACF5CDE4F488059806A803F
S1131A907B80C153D140C420D520E620F720C82A3A
S1131AA0D92AEA2AFB2A8C0C9D1CAE1CBF1CC75CDD
S1131AB0DE4F488059806A807B80C953D140400EF4
S1131AC0511E621E731ECB5DDE4F488259826A82AC
S1131AD07B82C552D14068017901C80CD91CEA1C2B
S1131AE0FB1CC75CDE4FC882D982EA82FB82C953E1
S1131AF0D140CB5EDE4FC882D982EA82FB82C551D7
S1131B00D140D301C201689415F8B695A79597956D
S1131B1087951694D1F7B301A201032E3AE1440F3D
S1131B20551F661F771F3A95D1F7302D482B592B37
S1131B306A2B7B2B930182010F2EFBE036952795B0
S1131B4017950795FA95D1F7F02DD301C201072E09
S1131B5075E1880F991FAA1FBB1F7A95D1F7702DC5
S1131B60802B912BA22BB32B482759276A277B273D
S1131B7093018201000F111F221F331F000F111F39
S1131B80221F331F000F111F221F331F000F111FAD
S1131B90221F331F000F111F221F331F000F111F9D
S1131BA0221F331F000F111F221F331FD301C20135
S1131BB0072E79E1B695A795979587957A95D1F7EC
S1131BC0702D802B912BA22BB32B84279527A6272E
S1131BD0B727C35DDE4F488159816A817B81CD522D
S1131BE0D140480F591F6A1F7B1FCF5BDE4F88818E
S1131BF09981AA81BB81C154D140C75DDE4FE88081
S1131C00F9800A811B81C952D1408E259F25A027C6
S1131C10B12784219521A621B721CF5BDE4F08810E
S1131C2019812A813B81C154D140082719272A27C9
S1131C303B27DB01CA01800F911FA21FB31FC35CA6
S1131C40DE4FE881F981CD53D140E156FF4F8080CA
S1131C509180A280B380880D991DAA1DBB1DF1013E
S1131C6037968F01000F111F000F111FC35DDE4F48
S1131C7019830883CD52D140E1E0F0E0EC0FFD1F61
S1131C80E00FF11F40815181628173814C015D013C
S1131C90840E951EA61EB71EC75CDE4F88819981EF
S1131CA0AA81BB81C953D140B695A79597958795CD
S1131CB0B695A79597958795C75CDE4FC880D98060
S1131CC0EA80FB80C953D1400B2EBEE1CC0CDD1C55
S1131CD0EE1CFF1CBA95D1F7B02DC82AD92AEA2ADE
S1131CE0FB2AC75CDE4F488159816A817B81C953D5
S1131CF0D140032E3DE076956795579547953A95E3
S1131D00D1F7302DC75CDE4F88819981AA81BB81D0
S1131D10C953D140072E73E1880F991FAA1FBB1F17
S1131D207A95D1F7702D842B952BA62BB72B8C2568
S1131D309D25AE25BF25C75CDE4F488159816A8148
S1131D407B81C953D140032E3AE0440F551F661FCF
S1131D50771F3A95D1F7302DC75CDE4FC880D98004
S1131D60EA80FB80C953D1400B2EB6E1F694E79488
S1131D70D794C794BA95D1F7B02DC42AD52AE62AA8
S1131D80F72AC826D926EA26FB26CB5CDE4F4881F3
S1131D9059816A817B81C553D140C75CDE4F8881FC
S1131DA09981AA81BB81C953D140482359236A230D
S1131DB07B23CB5CDE4F088119812A813B81C5538B
S1131DC0D140082B192B2A2B3B2BCB5BDE4F888170
S1131DD09981AA81BB81C554D140082319232A23A0
S1131DE03B23402B512B622B732B4C0D5D1D6E1D21
S1131DF07F1DCF5CDE4FC880D980EA80FB80C15351
S1131E00D140C80CD91CEA1CFB1CCF5CDE4FC88235
S1131E10D982EA82FB82C153D140CF5DDE4FC882B2
S1131E20D982EA82FB82C152D140480D591D6A1DF4
S1131E307B1DCF5EDE4F488359836A837B83C15108
S1131E40D140D701C601689415F8B695A795979522
S1131E5087951694D1F746015701072E7AE1880C2D
S1131E60991CAA1CBB1C7A95D1F7702D882A992A33
S1131E70AA2ABB2A970186010F2EFBE036952795E7
S1131E8017950795FA95D1F7F02DD701C601072EBE
S1131E9075E1880F991FAA1FBB1F7A95D1F7702D82
S1131EA0802B912BA22BB32B88269926AA26BB26FE
S1131EB097018601000F111F221F331F000F111FEE
S1131EC0221F331F000F111F221F331F000F111F6A
S1131ED0221F331F000F111F221F331F000F111F5A
S1131EE0221F331F000F111F221F331FD701C601EA
S1131EF0072E79E1B695A795979587957A95D1F7A9
S1131F00702D802B912BA22BB32B88259925AA25E4
S1131F10BB25CF5BDE4F88809980AA80BB80C154EB
S1131F20D140880E991EAA1EBB1EC75DDE4F888154
S1131F309981AA81BB81C952D14084259525A625C2
S1131F40B7258C219D21AE21BF21C75DDE4F0881BD
S1131F5019812A813B81C952D140082719272A2790
S1131F603B27D501C401800F911FA21FB31FC95A7B
S1131F70DE4FE881F981C755D140E156FF4F80809B
S1131F809180A280B380880D991DAA1DBB1D81017B
S1131F90085F1F4FCF5BDE4F19830883C154D140C4
S1131FA0F801EE0FFF1FEE0FFF1F21E030E02C0FB2
S1131FB03D1FE20FF31F80809180A280B380880EC2
S1131FC0991EAA1EBB1EDB01CA01B695A79597955B
S1131FD08795B695A795979587956A017B010B2EF2
S1131FE0BEE1CC0CDD1CEE1CFF1CBA95D1F7B02D64
S1131FF0C82AD92AEA2AFB2A8A019B010F2EFDE06E
S11320003695279517950795FA95D1F7F02DDB01AD
S1132010CA01072E73E1880F991FAA1FBB1F7A9567
S1132020D1F7702D802B912BA22BB32B8C259D25C2
S1132030AE25BF258A019B010F2EFAE0000F111F68
S1132040221F331FFA95D1F7F02D6A017B010B2E65
S1132050B6E1F694E794D794C794BA95D1F7B02D26
S1132060C02AD12AE22AF32A9701860108271927D0
S11320702A273B27C35CDE4F088319832A833B83CB
S1132080CD53D140C75CDE4F88819981AA81BB8141
S1132090C953D14084239523A623B723C75CDE4FBD
S11320A0088119812A813B81C953D140042B152B06
S11320B0262B372BCB5CDE4FC880D980EA80FB808F
S11320C0C553D1400C211D212E213F21802B912B62
S11320D0A22BB32BC35CDE4FE880F9800A811B81FD
S11320E0CD53D1408E0D9F1DA01FB11FCB5BDE4F82
S11320F0088119812A813B81C554D140080D191DDD
S11321002A1D3B1DC35EDE4F088319832A833B834C
S1132110CD51D140880D991DAA1DBB1DC35FDE4F53
S113212088839983AA83BB83CD50D1406801790108
S1132130689415F8F694E794D794C7941694D1F755
S113214048015901072E7AE1880C991CAA1CBB1C72
S11321507A95D1F7702D8C289D28AE28BF28C35CB2
S1132160DE4F88829982AA82BB82CD53D140580126
S11321706901092E9BE0D694C794B794A7949A95C5
S1132180D1F7902DCB5BDE4FA882B982CA82DB8265
S1132190C554D140680179010B2EB5E1CC0CDD1C8E
S11321A0EE1CFF1CBA95D1F7B02DCB5BDE4F8880B7
S11321B09980AA80BB80C554D140C828D928EA2870
S11321C0FB28C35CDE4F88809980AA80BB80CD53F6
S11321D0D1408C249D24AE24BF24CB5BDE4F888267
S11321E09982AA82BB82C554D14048015901880C06
S11321F0991CAA1CBB1C880C991CAA1CBB1C880C0F
S1132200991CAA1CBB1C880C991CAA1CBB1C880CFE
S1132210991CAA1CBB1C880C991CAA1CBB1C880CEE
S1132220991CAA1CBB1C680179010B2EB9E1F69418
S1132230E794D794C794BA95D1F7B02DC828D92874
S1132240EA28FB28CB5BDE4F88809980AA80BB807C
S1132250C554D140C824D924EA24FB24C75DDE4FE9
S113226088809980AA80BB80C952D140C80CD91CEF
S1132270EA1CFB1CCF5CDE4F88809980AA80BB805F
S1132280C153D14084249524A624B72408211921BC
S11322902A213B210425152526253725C00ED11ECC
S11322A0E21EF31EC35DDE4FE881F981CD52D140B9
S11322B0E156FF4F0081118122813381C00ED11E6E
S11322C0E21EF31E09E0200E311C220C331C220CEA
S11322D0331CE1E0F0E0EC0FFD1FE20DF31D008183
S11322E0118122813381C00ED11EE21EF31EC982E8
S11322F0DA82EB82FC828C019D0136952795179535
S1132300079536952795179507954C015D01072E7E
S11323107EE1880C991CAA1CBB1C7A95D1F7702D00
S1132320802A912AA22AB32A2C013D01032E3DE0E2
S113233076946794579447943A95D1F7302D8C014D
S11323409D010F2EF3E1000F111F221F331FFA9579
S1132350D1F7F02D0429152926293729802691261D
S1132360A226B3262C013D01032E3AE0440C551C51
S1132370661C771C3A95D1F7302D8C019D010F2EE8
S1132380F6E13695279517950795FA95D1F7F02D2F
S11323900429152926293729082519252A253B2505
S11323A02A013B01482259226A227B22842B952B45
S11323B0A62BB72BC75CDE4F488159816A817B818C
S11323C0C953D14084239523A623B723482A592AE5
S11323D06A2A7B2A040D151D261D371D0D831E83B5
S11323E02F833887CB5CDE4F488159816A817B819A
S11323F0C553D1404C0D5D1D6E1D7F1DC75EDE4F64
S1132400488359836A837B83C951D1400C0D1D1DB8
S11324102E1D3F1DC75FDE4F088319832A833B832C
S1132420C950D140CF5BDE4F28803980C154D140A0
S113243050E12516310410F40C94E104689422242C
S113244024F8312C0C941827CB5DDE4FC880D9803A
S1132450EA80FB80C552D140C75EDE4F6881798136
S11324608A819B81C951D140CB5CDE4F68837983DB
S11324708A839B83C553D140DC01CB01689415F852
S1132480B695A795979587951694D1F7CB5CDE4FB3
S1132490088119812A813B81C553D1400F2EFAE16D
S11324A0000F111F221F331FFA95D1F7F02D082BAF
S11324B0192B2A2B3B2BCB5CDE4F488159816A8137
S11324C07B81C553D140032E3BE0769567955795A4
S11324D047953A95D1F7302DCB5CDE4F88819981B1
S11324E0AA81BB81C553D140072E75E1880F991F7E
S11324F0AA1FBB1F7A95D1F7702D842B952BA62B81
S1132500B72B082719272A273B27CB5CDE4F888166
S11325109981AA81BB81C553D140880F991FAA1FF5
S1132520BB1F880F991FAA1FBB1F880F991FAA1FC3
S1132530BB1F880F991FAA1FBB1F880F991FAA1FB3
S1132540BB1F880F991FAA1FBB1F880F991FAA1FA3
S1132550BB1FCB5CDE4F488159816A817B81C553A7
S1132560D140032E39E176956795579547953A956D
S1132570D1F7302D482B592B6A2B7B2B4027512721
S1132580622773274C0D5D1D6E1D7F1DC35EDE4FDC
S113259088819981AA81BB81CD51D140CB5BDE4F2B
S11325A088839983AA83BB83C554D140CF5DDE4F12
S11325B0488059806A807B80C152D140C75CDE4F1D
S11325C0488259826A827B82C953D14084259525E9
S11325D0A625B725CB5CDE4F688079808A809B80F6
S11325E0C553D14086219721A821B921C75CDE4F6C
S11325F088809980AA80BB80C953D14088259925B9
S1132600AA25BB25480F591F6A1F7B1F9101220F62
S1132610331F220F331FF901E156FF4F808191814F
S1132620A281B381480F591F6A1F7B1F8101025089
S11326301109C55ADE4F19830883CB55D14081E077
S113264090E08C0F9D1F820F931FCF5ADE4F99830A
S11326508883C155D140DC018D909D90AD90BC9094
S1132660D501C401072E7FE0880F991FAA1FBB1F45
S11326707A95D1F7702D750164010B2EB1E1F694B2
S1132680E794D794C794BA95D1F7B02DC82AD92A1C
S1132690EA2AFB2A950184010F2EFDE0000F111F89
S11326A0221F331FFA95D1F7F02DD501C401072E4F
S11326B073E1B695A795979587957A95D1F7702D7F
S11326C0802B912BA22BB32B8C259D25AE25BF25CA
S11326D0750164010B2EBAE0F694E794D794C7947D
S11326E0BA95D1F7B02DC826D926EA26FB26F101E2
S11326F03797C35ADE4FF983E883CD55D1403296DC
S1132700EE0FFF1FEE0FFF1F44244394512C4C0E79
S11327105D1EE40DF51D80819181A281B381C80EF7
S1132720D91EEA1EFB1EC1010D97880F991F880F41
S1132730991F3201680E791EC75BDE4F7982688269
S1132740C954D140F30180819181A281B3818C016C
S11327509D01689416F83695279517950795169454
S1132760D1F74C015D01072E79E1880C991CAA1C54
S1132770BB1C7A95D1F7702D802A912AA22AB32AFC
S11327802C013D01032E3EE0440C551C661C771CB5
S11327903A95D1F7302D8C019D010F2EF2E136953B
S11327A0279517950795FA95D1F7F02D0429152942
S11327B026293729082519252A253B25689412F846
S11327C0B695A795979587951694D1F70827192755
S11327D02A273B27C00ED11EE21EF31EF1013E97AD
S11327E0EE0FFF1FEE0FFF1F44244394512C4C0E99
S11327F05D1EE40DF51D80819181A281B381C80E17
S1132800D91EEA1EFB1E81010E5F1F4FC35BDE4F04
S113281019830883CD54D140000F111F000F111FDD
S1132820C15BDE4F19830883CF54D1409201200F3E
S1132830311FC95ADE4F39832883C755D140D90186
S1132840CD92DD92ED92FC9213974C0D5D1D6E1DA1
S11328507F1DC75FDE4F488059806A807B80C950E6
S1132860D140C75DDE4F488259826A827B82C95259
S1132870D140D301C201B695A79597958795B69592
S1132880A79597958795032E3EE1440C551C661C2D
S1132890771C3A95D1F7302D482A592A6A2A7B2A7F
S11328A0C75DDE4F088119812A813B81C952D1401D
S11328B00F2EFDE03695279517950795FA95D1F7D4
S11328C0F02DC75DDE4F88819981AA81BB81C952F1
S11328D0D140072E73E1880F991FAA1FBB1F7A9559
S11328E0D1F7702D802B912BA22BB32B842595250A
S11328F0A625B725C75DDE4F088119812A813B8152
S1132900C952D1400F2EFAE0000F111F221F331FAE
S1132910FA95D1F7F02DC75DDE4F488059806A8063
S11329207B80C952D140032E36E176946794579444
S113293047943A95D1F7302D402A512A622A732AB6
S113294084259525A625B725C35FDE4F6880798049
S11329508A809B80CD50D140CF5BDE4F68827982E4
S11329608A829B82C154D140C75DDE4FC880D98022
S1132970EA80FB80C952D140C620D720E820F92044
S1132980CF5EDE4F88809980AA80BB80C151D14040
S1132990C35DDE4F88829982AA82BB82CD52D14028
S11329A0C75DDE4F488059806A807B80C952D14020
S11329B0CF5BDE4F088119812A813B81C154D1400C
S11329C0402A512A622A732A482059206A207B20EF
S11329D04C285D286E287F28840D951DA61DB71DE3
S11329E0CB5EDE4F088119812A813B81C551D140DC
S11329F02A013B01400E511E621E731EC35CDE4F52
S1132A00488259826A827B82CD53D1403A014B017C
S1132A10680E791E8A1E9B1ECF5CDE4F6882798207
S1132A208A829B82C153D140C35CDE4F88819981E5
S1132A30AA81BB81CD53D140689415F8B695A7956A
S1132A40979587951694D1F7C35CDE4F48815981D9
S1132A506A817B81CD53D140032E3AE1440F551F47
S1132A60661F771F3A95D1F7302D482B592B6A2BC7
S1132A707B2BC35CDE4F088119812A813B81CD53B6
S1132A80D1400F2EFBE03695279517950795FA95BB
S1132A90D1F7F02DC35CDE4F88819981AA81BB8177
S1132AA0CD53D140072E75E1880F991FAA1FBB1F74
S1132AB07A95D1F7702D802B912BA22BB32B48271D
S1132AC059276A277B27C35CDE4F88819981AA81B5
S1132AD0BB81CD53D140880F991FAA1FBB1F880FFC
S1132AE0991FAA1FBB1F880F991FAA1FBB1F880FFE
S1132AF0991FAA1FBB1F880F991FAA1FBB1F880FEE
S1132B00991FAA1FBB1F880F991FAA1FBB1FC35C55
S1132B10DE4FC880D980EA80FB80CD53D1400B2E94
S1132B20B9E1F694E794D794C794BA95D1F7B02D48
S1132B30C82AD92AEA2AFB2ADB01CA018C259D2549
S1132B40AE25BF25C75CDE4F488159816A817B81F0
S1132B50C953D140480F591F6A1F7B1FCB5CDE4FFE
S1132B60488059806A807B80C553D140CB5BDE4F5F
S1132B7088809980AA80BB80C554D14048245924B8
S1132B806A247B24C35CDE4FA880B980CA80DB80C2
S1132B90CD53D1404A205B206C207D20CB5BDE4F9F
S1132BA0C880D980EA80FB80C554D1404C245D2480
S1132BB06E247F24DB01CA01840D951DA61DB71D5B
S1132BC091012F5F3F4F220F331F220F331FF90153
S1132BD0E156FF4FC080D180E280F3802C013D019B
S1132BE04C0C5D1C6E1C7F1C810101501109C15AE3
S1132BF0DE4F19830883CF55D14041E050E04C0F9C
S1132C005D1F420F531FC75ADE4F59834883C9556E
S1132C10D140DA018D909D90AD90BC90D501C40156
S1132C20072E7FE0880F991FAA1FBB1F7A95D1F743
S1132C30702D750164010B2EB1E1F694E794D794DD
S1132C40C794BA95D1F7B02DC82AD92AEA2AFB2A03
S1132C50B501A401032E3DE0440F551F661F771FE5
S1132C603A95D1F7302DD501C401072E73E1B695FD
S1132C70A795979587957A95D1F7702D842B952BE9
S1132C80A62BB72B8C259D25AE25BF257501640188
S1132C900B2EBAE0F694E794D794C794BA95D1F77B
S1132CA0B02DC826D926EA26FB26F1013697CF593E
S1132CB0DE4FF983E883C156D1403296EE0FFF1FF1
S1132CC0EE0FFF1F88248394912C8C0E9D1EE80D1B
S1132CD0F91D80819181A281B381C80ED91EEA1E9B
S1132CE0FB1EC1010C97880F991F880F991F54016F
S1132CF0A80EB91ECD5ADE4FB982A882C355D14061
S1132D00F50180819181A281B3818C019D01689438
S1132D1016F836952795179507951694D1F7AC01B3
S1132D20BD01032E39E1440F551F661F771F3A95E5
S1132D30D1F7302D402B512B622B732B4C015D01AD
S1132D40072E7EE0880C991CAA1CBB1C7A95D1F72F
S1132D50702D8C019D010F2EF2E136952795179564
S1132D600795FA95D1F7F02D082919292A293B2925
S1132D700427152726273727689412F8B695A795B0
S1132D80979587951694D1F7082719272A273B2763
S1132D90C00ED11EE21EF31EC75BDE4FE881F9812F
S1132DA0C954D14080819181A281B381C80ED91EBA
S1132DB0EA1EFB1EF10133964F01880C991C880C06
S1132DC0991CC75BDE4F99828882C954D140AA24DA
S1132DD0A394B12CAC0EBD1EA80CB91CCB5ADE4F6B
S1132DE0B982A882C555D140D501CD92DD92ED922C
S1132DF0FC921397C40CD51CE61CF71CCF5CDE4F69
S1132E0088819981AA81BB81C153D140B695A79588
S1132E1097958795B695A79597958795CF5CDE4F3F
S1132E20488159816A817B81C153D140032E3EE19F
S1132E30440F551F661F771F3A95D1F7302D482B45
S1132E40592B6A2B7B2BCF5CDE4F088119812A8199
S1132E503B81C153D1400F2EFDE036952795179540
S1132E600795FA95D1F7F02DCF5CDE4F88819981D3
S1132E70AA81BB81C153D140072E73E1880F991FEA
S1132E80AA1FBB1F7A95D1F7702D802B912BA22BF3
S1132E90B32B84279527A627B727CF5CDE4F48811D
S1132EA059816A817B81C153D140032E3AE0440F9A
S1132EB0551F661F771F3A95D1F7302DCF5CDE4F33
S1132EC088809980AA80BB80C153D140072E76E1C7
S1132ED0B694A794979487947A95D1F7702D842A01
S1132EE0952AA62AB72A88259925AA25BB25C75D30
S1132EF0DE4F488159816A817B81C952D140CF5CC0
S1132F00DE4F488059806A807B80C153D140442180
S1132F10552166217721C75DDE4F88809980AA807C
S1132F20BB80C952D14084289528A628B728CF5BF6
S1132F30DE4F088119812A813B81C154D14080220E
S1132F409122A222B322482959296A297B29480FB0
S1132F50591F6A1F7B1FC35DDE4F88819981AA8137
S1132F60BB81CD52D1408C0D9D1DAE1DBF1DC35DD7
S1132F70DE4F88839983AA83BB83CD52D140260137
S1132F803701440E551E661E771EC75CDE4F48820D
S1132F9059826A827B82C953D140689415F8B695E8
S1132FA0A795979587951694D1F7C35DDE4F8880D2
S1132FB09980AA80BB80CD52D140072E7AE1880C3B
S1132FC0991CAA1CBB1C7A95D1F7702D882A992AC2
S1132FD0AA2ABB2AC35DDE4F488159816A817B815D
S1132FE0CD52D140032E3BE0769567955795479592
S1132FF03A95D1F7302DC35DDE4F88819981AA813E
S1133000BB81CD52D140072E75E1880F991FAA1FAD
S1133010BB1F7A95D1F7702D842B952BA62BB72B3C
S113302088269926AA26BB26C35DDE4F488159818E
S11330306A817B81CD52D140440F551F661F771F93
S1133040440F551F661F771F440F551F661F771FB8
S1133050440F551F661F771F440F551F661F771FA8
S1133060440F551F661F771F440F551F661F771F98
S1133070C35DDE4F88819981AA81BB81CD52D14045
S1133080072E79E1B695A795979587957A95D1F707
S1133090702D842B952BA62BB72B88259925AA2533
S11330A0BB25CB5BDE4F88809980AA80BB80C5544A
S11330B0D140880E991EAA1EBB1ECB5CDE4F8881B0
S11330C09981AA81BB81C553D140C35CDE4FC880BE
S11330D0D980EA80FB80CD53D1408C259D25AE2537
S11330E0BF25C35DDE4FE880F9800A811B81CD5284
S11330F0D1408E219F21A023B123CB5CDE4F488198
S113310059816A817B81C553D140482759276A2751
S11331107B27D501C401840F951FA61FB71FC15B70
S1133120DE4FE881F981CF54D140E156FF4F8080D2
S11331309180A280B380880E991EAA1EBB1EC95A14
S1133140DE4FA881B981C755D1404D905D906D90F7
S11331507C90D301C201072E7FE0880F991FAA1F1C
S1133160BB1F7A95D1F7702DB301A201032E31E173
S113317076956795579547953A95D1F7302D482B15
S1133180592B6A2B7B2B930182010F2EFDE0000F3C
S1133190111F221F331FFA95D1F7F02DD301C2015D
S11331A0072E73E1B695A795979587957A95D1F7EC
S11331B0702D802B912BA22BB32B84279527A62728
S11331C0B727B301A201032E3AE076956795579588
S11331D047953A95D1F7302D482759276A277B27F9
S11331E0F1013397EE0FFF1FEE0FFF1F44244394AA
S11331F0512C4C0E5D1EE40DF51D80819181A28140
S1133200B381480F591F6A1F7B1FC1010B97880F99
S1133210991F880F991F3201680E791EC15BDE4F1A
S113322079826882CF54D140F30180819181A28157
S1133230B3818C019D01689416F8369527951795EE
S113324007951694D1F76C017D010B2EB9E1CC0CD6
S1133250DD1CEE1CFF1CBA95D1F7B02DC02AD12A73
S1133260E22AF32A2C013D01032E3EE0440C551CB6
S1133270661C771C3A95D1F7302D8C019D010F2ED9
S1133280F2E13695279517950795FA95D1F7F02D24
S113329004291529262937290C251D252E253F25E6
S11332A0689412F8B695A795979587951694D1F7D3
S11332B0082719272A273B27400F511F621F731F16
S11332C0CD5ADE4FA881B981C355D140CD90DD9050
S11332D0ED90FC904C0D5D1D6E1D7F1DC35BDE4F9C
S11332E088819981CD54D1400296880F991F880F07
S11332F0991FE1E0F0E0EC0FFD1FE80FF91FC35B3D
S1133300DE4FF983E883CD54D140408351836283F7
S11333107383840E951EA61EB71EC75CDE4F88817C
S11333209981AA81BB81C953D140B695A795979538
S11333308795B695A79597958795C75CDE4FC88006
S1133340D980EA80FB80C953D1400B2EBEE1CC0C5E
S1133350DD1CEE1CFF1CBA95D1F7B02DC82AD92A62
S1133360EA2AFB2AC75CDE4F488159816A817B8146
S1133370C953D140032E3DE07695679557954795FF
S11333803A95D1F7302DC75CDE4F88819981AA81A7
S1133390BB81C953D140072E73E1880F991FAA1F1F
S11333A0BB1F7A95D1F7702D842B952BA62BB72BA9
S11333B08C259D25AE25BF25C75CDE4F48815981EC
S11333C06A817B81C953D140032E3AE0440F551FD3
S11333D0661F771F3A95D1F7302DC75CDE4F4880C2
S11333E059806A807B80C953D140032E36E176949C
S11333F06794579447943A95D1F7302D442A552A27
S1133400662A772A84259525A625B725CF5CDE4F25
S1133410C880D980EA80FB80C153D140C75CDE4FAD
S1133420488059806A807B80C953D140C420D5200C
S1133430E620F720CF5CDE4F488059806A807B808D
S1133440C153D140C75CDE4F088119812A813B8179
S1133450C953D140402A512A622A732AC75DDE4FDC
S1133460288139814A815B81C952D1404222532249
S1133470642275224C285D286E287F28480E591E28
S11334806A1E7B1ECF5BDE4F488159816A817B8136
S1133490C154D140480D591D6A1D7B1DCF5BDE4FC1
S11334A0488359836A837B83C154D140C501B401E5
S11334B0640D751D861D971DCB5BDE4F6883798374
S11334C08A839B83C554D140CF5BDE4F8881998129
S11334D0AA81BB81C154D140689415F8B695A795CB
S11334E0979587951694D1F7CF5BDE4F08811981A4
S11334F02A813B81C154D1400F2EFAE1000F111FE4
S1133500221F331FFA95D1F7F02D082B192B2A2BE4
S11335103B2BCF5BDE4F488159816A817B81C1544B
S1133520D140032E3BE076956795579547953A959C
S1133530D1F7302DCF5BDE4F88819981AA81BB8181
S1133540C154D140072E75E1880F991FAA1FBB1FD4
S11335507A95D1F7702D842B952BA62BB72B0827A2
S113356019272A273B27CF5BDE4F488159816A817F
S11335707B81C154D140440F551F661F771F440FF0
S1133580551F661F771F440F551F661F771F440F73
S1133590551F661F771F440F551F661F771F440F63
S11335A0551F661F771F440F551F661F771FCF5B7C
S11335B0DE4F88819981AA81BB81C154D140072EF5
S11335C079E1B695A795979587957A95D1F7702D5A
S11335D0842B952BA62BB72B80279127A227B327C3
S11335E0CB5CDE4F088119812A813B81C553D140D0
S11335F0080F191F2A1F3B1FC35CDE4F8881998166
S1133600AA81BB81CD53D140C35DDE4F4880598030
S11336106A807B80CD52D14084259525A625B72587
S1133620CF5BDE4F688079808A809B80C154D14013
S113363086219721A821B921C35CDE4F4881598195
S11336406A817B81CD53D140482759276A277B273C
S1133650D901C801840F951FA61FB71FC75BDE4F92
S1133660E881F981C954D140E156FF4F00811181AD
S113367022813381080F191F2A1F3B1FCB5ADE4FAB
S1133680A881B981C555D1408D909D90AD90BC90D5
S1133690D501C401072E7FE0880F991FAA1FBB1F05
S11336A07A95D1F7702D750164010B2EB1E1F69472
S11336B0E794D794C794BA95D1F7B02DC82AD92ADC
S11336C0EA2AFB2AB501A401032E3DE0440F551F4D
S11336D0661F771F3A95D1F7302DD501C401072E07
S11336E073E1B695A795979587957A95D1F7702D3F
S11336F0842B952BA62BB72B8C259D25AE25BF257A
S1133700750164010B2EBAE0F694E794D794C7943C
S1133710BA95D1F7B02DC826D926EA26FB26C55A74
S1133720DE4FE881F981CB55D140EE0FFF1FEE0F3C
S1133730FF1F44244394512C4C0E5D1EE40DF51DD3
S113374080819181A281B381C80ED91EEA1EFB1E1D
S1133750C1010A97880F991F880F991F3201680EBB
S1133760791EC75BDE4F79826882C954D140F30168
S113377080819181A281B381AC01BD01689416F866
S113378076956795579547951694D1F74C015D0149
S1133790072E79E1880C991CAA1CBB1C7A95D1F7D9
S11337A0702D842A952AA62AB72A2C013D01032EBE
S11337B03EE0440C551C661C771C3A95D1F7302D1D
S11337C0AC01BD01032E32E1769567955795479577
S11337D03A95D1F7302D442955296629772948256A
S11337E059256A257B25689412F8B695A79597956F
S11337F087951694D1F7482759276A277B27C40E43
S1133800D51EE61EF71EC15BDE4FA881B981CF54D9
S1133810D1404D915D916D917C91C40ED51EE61EF3
S1133820F71EF10135962F01440C551C440C551C10
S1133830C15BDE4F59824882CF54D14066246394E1
S1133840712C6C0E7D1E640C751CCD5ADE4F798272
S11338506882C355D140D301CD92DD92ED92FC92A2
S113386013970C0D1D1D2E1D3F1DCB5BDE4F888154
S11338709981AA81BB81C554D140B695A7959795E6
S11338808795B695A79597958795CB5BDE4F48802E
S113389059806A807B80C554D140032E3EE1440C9C
S11338A0551C661C771C3A95D1F7302D482A592AA5
S11338B06A2A7B2ACB5BDE4F488159816A817B81EE
S11338C0C554D140032E3DE07695679557954795AD
S11338D03A95D1F7302DCB5BDE4F88819981AA814F
S11338E0BB81C554D140072E73E1880F991FAA1FCD
S11338F0BB1F7A95D1F7702D842B952BA62BB72B54
S113390084259525A625B725CB5BDE4F48815981B3
S11339106A817B81C554D140032E3AE0440F551F80
S1133920661F771F3A95D1F7302DCB5BDE4F488069
S113393059806A807B80C554D140032E36E1769449
S11339406794579447943A95D1F7302D442A552AD1
S1133950662A772A84259525A625B725C75CDE4FD8
S1133960C880D980EA80FB80C953D140CB5BDE4F4D
S1133970488059806A807B80C554D140C420D520BA
S1133980E620F720C75CDE4F488059806A807B8040
S1133990C953D140CB5BDE4F88809980AA80BB801D
S11339A0C554D140482859286A287B28CF5CDE4F6B
S11339B0488159816A817B81C153D1404422552277
S11339C0662277224C285D286E287F28480E591ECF
S11339D06A1E7B1EC75DDE4F688179818A819B8167
S11339E0C952D140600F711F821F931FC75DDE4F04
S11339F0688379838A839B83C952D140D901C801E2
S1133A00840D951DA61DB71DCB5CDE4F888399835D
S1133A10AA83BB83C553D140C75DDE4F888199819A
S1133A20AA81BB81C952D140689415F8B695A7956F
S1133A30979587951694D1F7C75DDE4F48815981D4
S1133A406A817B81C952D140032E3AE1440F551F4C
S1133A50661F771F3A95D1F7302D482B592B6A2BC7
S1133A607B2BC75DDE4F088119812A813B81C952B6
S1133A70D1400F2EFBE03695279517950795FA95BB
S1133A80D1F7F02DC75DDE4F88819981AA81BB8172
S1133A90C952D140072E75E1880F991FAA1FBB1F79
S1133AA07A95D1F7702D802B912BA22BB32B48271D
S1133AB059276A277B27C75DDE4F088119812A8130
S1133AC03B81C952D140000F111F221F331F000F29
S1133AD0111F221F331F000F111F221F331F000F3E
S1133AE0111F221F331F000F111F221F331F000F2E
S1133AF0111F221F331F000F111F221F331FC75D09
S1133B00DE4F88819981AA81BB81C952D140072E99
S1133B1079E1B695A795979587957A95D1F7702D04
S1133B20802B912BA22BB32B84279527A627B7276D
S1133B30C35CDE4F488159816A817B81CD53D1407A
S1133B40480F591F6A1F7B1FC35DDE4F888199810F
S1133B50AA81BB81CD52D140CF5BDE4F48805980D2
S1133B606A807B80C154D14084259525A625B7253C
S1133B70C75DDE4F688079808A809B80C952D140BE
S1133B8086219721A821B921C35DDE4F08811981BF
S1133B902A813B81CD52D140082719272A273B2768
S1133BA0DB01CA01800F911FA21FB31F3197EE0FD3
S1133BB0FF1FEE0FFF1FE156FF4F408151816281CD
S1133BC07381480F591F6A1F7B1FC35BDE4FA88197
S1133BD0B981CD54D1400D911D912D913C91D901C4
S1133BE0C801072E7FE0880F991FAA1FBB1F7A9573
S1133BF0D1F7702D48015901072E71E1B694A794AD
S1133C00979487947A95D1F7702D882A992AAA2AAD
S1133C10BB2A680179010B2EBDE0CC0CDD1CEE1C27
S1133C20FF1CBA95D1F7B02DD901C801072E73E155
S1133C30B695A795979587957A95D1F7702D8C2988
S1133C409D29AE29BF2988259925AA25BB250F2E94
S1133C50FAE03695279517950795FA95D1F7F02D43
S1133C6080279127A227B327C15ADE4FE881F98123
S1133C70CF55D140EE0FFF1FEE0FFF1F4424439496
S1133C80512C4C0E5D1EE40DF51D80809180A280A8
S1133C90B380880D991DAA1DBB1D910129503109BE
S1133CA0220F331F220F331F3201620E731EC35BB8
S1133CB0DE4F79826882CD54D140F30180809180B7
S1133CC0A280B38075016401689416F8F694E794B1
S1133CD0D794C7941694D1F7950184010F2EF9E176
S1133CE0000F111F221F331FFA95D1F7F02D0C2955
S1133CF01D292E293F29750164010B2EBEE0CC0C31
S1133D00DD1CEE1CFF1CBA95D1F7B02D2401350142
S1133D10032E32E176946794579447943A95D1F7F9
S1133D20302D4C285D286E287F2840265126622697
S1133D307326689412F8B694A7949794879416946B
S1133D40D1F7482459246A247B24840D951DA61D8B
S1133D50B71DC75BDE4FE881F981C954D14040806B
S1133D60518062807380840D951DA61DB71D91013D
S1133D702A5F3F4F2901440C551C440C551CC75B5A
S1133D80DE4F59824882C954D14066246394712C11
S1133D906C0E7D1E640C751CCB5ADE4F79826882D2
S1133DA0C555D140F30180839183A283B383480F27
S1133DB0591F6A1F7B1FCB5CDE4F88819981AA81C2
S1133DC0BB81C553D140B695A79597958795B69570
S1133DD0A79597958795CB5CDE4F88809980AA80BC
S1133DE0BB80C553D140072E7EE1880C991CAA1CC8
S1133DF0BB1C7A95D1F7702D882A992AAA2ABB2A46
S1133E00CB5CDE4F088119812A813B81C553D140A7
S1133E100F2EFDE03695279517950795FA95D1F75E
S1133E20F02DCB5CDE4F88819981AA81BB81C5537B
S1133E30D140072E73E1880F991FAA1FBB1F7A95E3
S1133E40D1F7702D802B912BA22BB32B882599258C
S1133E50AA25BB25CB5CDE4F088119812A813B81D1
S1133E60C553D1400F2EFAE0000F111F221F331F3C
S1133E70FA95D1F7F02DCB5CDE4F88809980AA802B
S1133E80BB80C553D140072E76E1B694A79497948E
S1133E9087947A95D1F7702D802A912AA22AB32A81
S1133EA088269926AA26BB26CB5BDE4F888199817A
S1133EB0AA81BB81C554D140CB5CDE4F4880598078
S1133EC06A807B80C553D14084219521A621B721E6
S1133ED0CB5BDE4FC880D980EA80FB80C554D140DB
S1133EE0C428D528E628F728C75CDE4F0881198145
S1133EF02A813B81C953D140C022D122E222F3223C
S1133F00C82AD92AEA2AFB2A8C0C9D1CAE1CBF1C89
S1133F10CF5CDE4F88819981AA81BB81C153D14096
S1133F20840F951FA61FB71FCF5CDE4F888399832C
S1133F30AA83BB83C153D140CB5DDE4F8883998371
S1133F40AA83BB83C552D1402A013B01480C591CAA
S1133F506A1C7B1CC35CDE4F488259826A827B8266
S1133F60CD53D140CB5EDE4F488259826A827B8238
S1133F70C551D140689415F8B695A795979587953E
S1133F801694D1F7CF5CDE4F488059806A807B80DD
S1133F90C153D140032E3AE1440C551C661C771CD6
S1133FA03A95D1F7302D482A592A6A2A7B2ACF5CC0
S1133FB0DE4F488159816A817B81C153D140032EF0
S1133FC03BE076956795579547953A95D1F7302D0F
S1133FD0CF5CDE4F88819981AA81BB81C153D140D6
S1133FE0072E75E1880F991FAA1FBB1F7A95D1F779
S1133FF0702D842B952BA62BB72B482659266A2681
S11340007B26CF5CDE4F488159816A817B81C15315
S1134010D140440F551F661F771F440F551F661F5D
S1134020771F440F551F661F771F440F551F661FC8
S1134030771F440F551F661F771F440F551F661FB8
S1134040771F440F551F661F771FCF5CDE4F888193
S11340509981AA81BB81C153D140072E79E1B695DC
S1134060A795979587957A95D1F7702D842B952BE5
S1134070A62BB72B84259525A625B725C35DDE4F32
S1134080488059806A807B80CD52D140480E591EA9
S11340906A1E7B1ECF5BDE4F88819981AA81BB811A
S11340A0C154D140C75DDE4F88809980AA80BB800F
S11340B0C952D14088259925AA25BB25CF5CDE4F5E
S11340C0A880B980CA80DB80C153D1408A219B215A
S11340D0AC21BD21CF5BDE4F488159816A817B8150
S11340E0C154D140482759276A277B27D301C201ED
S11340F0840F951FA61FB71FC15BDE4FE881F981AE
S1134100CF54D140E156FF4F40805180628073808C
S1134110480E591E6A1E7B1ECD5ADE4FA881B981F6
S1134120C355D1408D909D90AD90BC90D501C401F4
S1134130072E7FE0880F991FAA1FBB1F7A95D1F71E
S1134140702D750164010B2EB1E1F694E794D794B8
S1134150C794BA95D1F7B02DC82AD92AEA2AFB2ADE
S1134160B501A401032E3DE0440F551F661F771FC0
S11341703A95D1F7302DD501C401072E73E1B695D8
S1134180A795979587957A95D1F7702D842B952BC4
S1134190A62BB72B8C259D25AE25BF257501640163
S11341A00B2EBAE0F694E794D794C794BA95D1F756
S11341B0B02DC826D926EA26FB26CF5ADE4FE88141
S11341C0F981C155D1404081518162817381C40E0E
S11341D0D51EE61EF71EC1010897880F991F880F88
S11341E0991F88248394912C8C0E9D1E880E991EF1
S11341F0C15BDE4F99828882CF54D140D4014D9166
S11342005D916D917C918A019B01689416F83695B5
S11342102795179507951694D1F7DB01CA01072E48
S113422079E1880F991FAA1FBB1F7A95D1F7702DCA
S1134230802B912BA22BB32B4A015B01072E7EE02E
S1134240880C991CAA1CBB1C7A95D1F7702D8A0185
S11342509B010F2EF2E13695279517950795FA9550
S1134260D1F7F02D082919292A293B2908271927CC
S11342702A273B27689412F87695679557954795B2
S11342801694D1F70427152726273727C00ED11EE9
S1134290E21EF31EC35BDE4FE881F981CD54D140A9
S11342A00081118122813381C00ED11EE21EF31ED2
S11342B0C10107964C01880C991C880C991CCF5A93
S11342C0DE4F99828882C155D140AA24A394B12C8F
S11342D0AC0EBD1EA80CB91CC35BDE4FB982A8820C
S11342E0CD54D140D501CD92DD92ED92FC9213973D
S11342F04C0C5D1C6E1C7F1CC35CDE4F8881998155
S1134300AA81BB81CD53D140B695A7959795879542
S1134310B695A79597958795C35CDE4F48815981DB
S11343206A817B81CD53D140032E3EE1440F551F5A
S1134330661F771F3A95D1F7302D482B592B6A2BDE
S11343407B2BC35CDE4F088119812A813B81CD53CD
S1134350D1400F2EFDE03695279517950795FA95D0
S1134360D1F7F02DC35CDE4F88819981AA81BB818E
S1134370CD53D140072E73E1880F991FAA1FBB1F8D
S11343807A95D1F7702D802B912BA22BB32B8427F8
S11343909527A627B727C35CDE4F088119812A8198
S11343A03B81CD53D1400F2EFAE0000F111F221F85
S11343B0331FFA95D1F7F02DC35CDE4F4881598144
S11343C06A817B81CD53D140032E36E17695679582
S11343D0579547953A95D1F7302D402B512B622BA9
S11343E0732B482759276A277B27CB5CDE4F8881AC
S11343F09981AA81BB81C553D140C35CDE4F8880BB
S11344009980AA80BB80CD53D14088219921AA21CB
S1134410BB21CB5CDE4F88809980AA80BB80C553CA
S1134420D140C35CDE4FC880D980EA80FB80CD5385
S1134430D1408C289D28AE28BF28CB5BDE4FE88076
S1134440F9800A811B81C554D1408E209F20A0226F
S1134450B12288299929AA29BB29840F951FA61F4F
S1134460B71FC75CDE4F488159816A817B81C9537C
S1134470D140440D551D661D771DCF5DDE4F488329
S113448059836A837B83C152D14093018201080F0F
S1134490191F2A1F3B1FC35DDE4F088319832A831C
S11344A03B83CD52D140CF5EDE4F088319832A83EC
S11344B03B83C151D140DB01CA01689415F8B6951C
S11344C0A795979587951694D1F74A015B01072E16
S11344D07AE1880C991CAA1CBB1C7A95D1F7702D23
S11344E0882A992AAA2ABB2A8A019B010F2EFBE05B
S11344F03695279517950795FA95D1F7F02DDB0199
S1134500CA01072E75E1880F991FAA1FBB1F7A9550
S1134510D1F7702D802B912BA22BB32B88259925B5
S1134520AA25BB258A019B01000F111F221F331FDF
S1134530000F111F221F331F000F111F221F331FD3
S1134540000F111F221F331F000F111F221F331FC3
S1134550000F111F221F331F000F111F221F331FB3
S11345604A015B01072E79E1B694A7949794879446
S11345707A95D1F7702D802A912AA22AB32A882508
S11345809925AA25BB25CF5BDE4F88809980AA8018
S1134590BB80C154D140880E991EAA1EBB1EC75DA4
S11345A0DE4F88819981AA81BB81C952D140CF5CF9
S11345B0DE4F488059806A807B80C153D140842576
S11345C09525A625B72584239523A623B723C75D60
S11345D0DE4F088119812A813B81C952D1400827C5
S11345E019272A273B27D501C401800F911FA21F39
S11345F0B31FC75BDE4F28813981C954D14021568E
S11346003F4FF90180809180A280B3802C013D014D
S1134610480C591C6A1C7B1CC75BDE4F48825982BC
S11346206A827B82C954D140CB5ADE4FA881B981BA
S1134630C555D1404D905D906D907C90D301C201E1
S1134640072E7FE0880F991FAA1FBB1F7A95D1F709
S1134650702D53014201072E71E1B694A7949794EB
S113466087947A95D1F7702D882A992AAA2ABB2A89
S1134670930182010F2EFDE0000F111F221F331F33
S1134680FA95D1F7F02DD301C201072E73E1B69547
S1134690A795979587957A95D1F7702D802B912BB7
S11346A0A22BB32B88259925AA25BB2553014201AA
S11346B0072E7AE0B694A794979487947A95D1F7C5
S11346C0702D88269926AA26BB26C75ADE4FE88174
S11346D0F981C955D14080819181A281B381880E2D
S11346E0991EAA1EBB1EC35ADE4F88819981CD55DF
S11346F0D140880F991F880F991F44244394512C4B
S11347004C0E5D1E480E591ECF5BDE4F5982488207
S1134710C154D140D2010D911D912D913C9168015C
S11347207901689416F8F694E794D794C79416948C
S1134730D1F7D901C801072E79E1880F991FAA1F63
S1134740BB1F7A95D1F7702D8C299D29AE29BF29DD
S113475028013901032E3EE0440C551C661C771CCD
S11347603A95D1F7302D680179010B2EB2E1F69418
S1134770E794D794C794BA95D1F7B02DC428D52817
S1134780E628F728C826D926EA26FB26689412F8D4
S113479036952795179507951694D1F7C026D126F7
S11347A0E226F3268C0C9D1CAE1CBF1CC15BDE4FA5
S11347B0E881F981CF54D14080819181A281B38174
S11347C0880E991EAA1EBB1E8101085F1F4FC75C7D
S11347D0DE4F19830883C953D140F801EE0FFF1F40
S11347E0EE0FFF1F21E030E02C0F3D1FE20FF31FFF
S11347F080829182A282B382C75BDE4F88819981D5
S1134800AA81BB81C954D140880E991EAA1EBB1E21
S1134810C35DDE4F88819981AA81BB81CD52D1408D
S1134820B695A79597958795B695A79597958795E6
S1134830C35DDE4F088119812A813B81CD52D1406D
S11348400F2EFEE1000F111F221F331FFA95D1F71F
S1134850F02D082B192B2A2B3B2BC35DDE4FC88070
S1134860D980EA80FB80CD52D1400B2EBDE0F69476
S1134870E794D794C794BA95D1F7B02DC35DDE4FB2
S113488088819981AA81BB81CD52D140072E73E1E1
S1134890880F991FAA1FBB1F7A95D1F7702D8C29F9
S11348A09D29AE29BF2980279127A227B327C35D5D
S11348B0DE4FC880D980EA80FB80CD52D1400B2ED8
S11348C0BAE0CC0CDD1CEE1CFF1CBA95D1F7B02D60
S11348D0C35DDE4F088119812A813B81CD52D140CD
S11348E00F2EF6E13695279517950795FA95D1F78A
S11348F0F02D0C291D292E293F29082719272A279D
S11349003B27C35CDE4F88819981AA81BB81CD534B
S1134910D140C35DDE4F488059806A807B80CD5290
S1134920D14084219521A621B721C35CDE4F488064
S113493059806A807B80CD53D140C35DDE4FC880EF
S1134940D980EA80FB80CD52D1404C285D286E2866
S11349507F28CB5CDE4FC880D980EA80FB80C553BA
S1134960D1404C205D206E207F2084299529A629E2
S1134970B729800F911FA21FB31FCB5BDE4FC880E6
S1134980D980EA80FB80C554D140C80CD91CEA1CEC
S1134990FB1CC35EDE4FC882D982EA82FB82CD5102
S11349A0D140880D991DAA1DBB1DC35FDE4F8883AE
S11349B09983AA83BB83CD50D14097018601689423
S11349C015F836952795179507951694D1F726016E
S11349D03701032E3AE1440C551C661C771C3A95AA
S11349E0D1F7302D402A512A622A732A46015701F1
S11349F0072E7BE0B694A794979487947A95D1F781
S1134A00702D970186010F2EF5E1000F111F221F53
S1134A10331FFA95D1F7F02D082919292A293B29A2
S1134A20402651266226732646015701880C991C9C
S1134A30AA1CBB1C880C991CAA1CBB1C880C991CA6
S1134A40AA1CBB1C880C991CAA1CBB1C880C991C96
S1134A50AA1CBB1C880C991CAA1CBB1C880C991C86
S1134A60AA1CBB1C970186010F2EF9E136952795E8
S1134A7017950795FA95D1F7F02D082919292A29B0
S1134A803B290425152526253725C75DDE4F48809B
S1134A9059806A807B80C952D140040D151D261DA2
S1134AA0371DCF5CDE4F688079808A809B80C1533C
S1134AB0D14046255725682579254C215D216E2155
S1134AC07F214625572568257925040F151F261FA4
S1134AD0371FCF5ADE4FE881F981C155D140E156E5
S1134AE0FF4FC080D180E280F380480159018C0CD3
S1134AF09D1CAE1CBF1CC75DDE4F88829982AA82B2
S1134B00BB82C952D140C35BDE4FE881F981CD54E9
S1134B10D14080809180A280B380B501A401032E8E
S1134B203FE0440F551F661F771F3A95D1F7302D8C
S1134B30750164010B2EB1E1F694E794D794C79400
S1134B40BA95D1F7B02DC42AD52AE62AF72A9501B9
S1134B5084010F2EFDE0000F111F221F331FFA9551
S1134B60D1F7F02DB501A401032E33E176956795B5
S1134B70579547953A95D1F7302D402B512B622B01
S1134B80732B4C255D256E257F25750164010B2E45
S1134B90BAE0F694E794D794C794BA95D1F7B02DB8
S1134BA0C426D526E626F726C95ADE4FE881F981C0
S1134BB0C755D1404081518162817381C40ED51E95
S1134BC0E61EF71ECF59DE4FE881F981C156D14068
S1134BD0EE0FFF1FEE0FFF1F44244394512C4C0E85
S1134BE05D1EE40DF51D40815181628173818A014E
S1134BF09B01689416F83695279517950795169492
S1134C00D1F74A015B01072E79E1880C991CAA1C93
S1134C10BB1C7A95D1F7702D802A912AA22AB32A37
S1134C202A013B01032E3EE0440C551C661C771CF4
S1134C303A95D1F7302D8A019B010F2EF2E136957A
S1134C40279517950795FA95D1F7F02D042915297D
S1134C5026293729082519252A253B25689412F881
S1134C6076956795579547951694D1F70427152798
S1134C7026273727C00ED11EE21EF31ECF5BDE4F60
S1134C80E881F981C154D1400081118122813381AD
S1134C90C00ED11EE21EF31EF9E02F0E311C220CB1
S1134CA0331C220C331CE1E0F0E0EC0FFD1FE20D9D
S1134CB0F31DC082D182E282F382C75DDE4F488059
S1134CC059806A807B80C952D140C40CD51CE61C33
S1134CD0F71CC982DA82EB82FC82AC01BD017695B5
S1134CE067955795479576956795579547958C01A0
S1134CF09D010F2EFEE1000F111F221F331FFA9595
S1134D00D1F7F02D042B152B262B372B4C015D01ED
S1134D10072E7DE0B694A794979487947A95D1F75B
S1134D20702DAC01BD01032E33E1440F551F661FE6
S1134D30771F3A95D1F7302D482959296A297B29BB
S1134D4004271527262737274C015D01072E7AE013
S1134D50880C991CAA1CBB1C7A95D1F7702DAC0148
S1134D60BD01032E36E176956795579547953A959B
S1134D70D1F7302D482959296A297B294027512701
S1134D8062277327C35DDE4F88809980AA80BB8029
S1134D90CD52D14088229922AA22BB22C35DDE4F84
S1134DA0088119812A813B81CD52D140802B912BDE
S1134DB0A22BB32BC35CDE4F488059806A807B8072
S1134DC0CD53D14084219521A621B721882A992A3F
S1134DD0AA2ABB2A480D591D6A1D7B1D4D835E837B
S1134DE06F837887CB5CDE4F488059806A807B80F4
S1134DF0C553D1404C0C5D1C6E1C7F1CC75EDE4F3E
S1134E00488259826A827B82C951D1404C0D5D1D12
S1134E106E1D7F1DC75FDE4F488359836A837B8382
S1134E20C950D140C75CDE4F28803980C953D14076
S1134E3000E42016310410F40C94241220E030E035
S1134E40CD59DE4F48815981C356D14027C0F9015D
S1134E50EE5BFF4FEE0FFF1FEE0FFF1F61E070E0F0
S1134E606C0F7D1FE60FF71F80819181A281B381B2
S1134E70F9013296EE0FFF1FEE0FFF1FE40FF51F2F
S1134E80C080D180E280F3808C0D9D1DAE1DBF1DBE
S1134E9080839183A283B3832F5F3F4F28303105F2
S1134EA0B0F268E271E0CE0101960E949B0380E0BB
S1134EB090E0CC59DE4F0FB6F894DEBF0FBECDBFE5
S1134EC0DF91CF911F910F91FF90EF90DF90CF90E2
S1134ED0BF90AF909F908F907F906F905F904F9016
S1134EE03F902F9008954F925F926F927F928F928E
S1134EF09F92AF92BF92CF92DF92EF92FF920F9365
S1134F001F93CF93DF937C018B01EA01209709F46F
S1134F106BC0FC0140815181628173814A015B0154
S1134F20FFE38F229924AA24BB24C40120E430E0A7
S1134F306901C818D9082E01612C712C440D551D26
S1134F40661D771DF7014083518362837383441583
S1134F5055056605770560F444815581668177813E
S1134F604F5F5F4F6F4F7F4F4483558366837783D3
S1134F7081149104A104B10429F1CC15DD0510F1CB
S1134F80A601B8015701F8E2AF0EB11C8A0D9B1DB2
S1134F900E94F828B501C7010E944F04009749F503
S1134FA00C0D1D1DCC19DD09812C912C54010AC056
S1134FB0B801C7010E944F040097D9F4005C1F4F49
S1134FC0C054D109C034D10598F7209781F028E264
S1134FD0E20EF11CC701880D991DAE01B8010E94B3
S1134FE0F82880E090E005C080E090E002C080E016
S1134FF090E0DF91CF911F910F91FF90EF90DF90A0
S1135000CF90BF90AF909F908F907F906F905F9064
S11350104F9008950E9473270895CF92DF92EF92E4
S1135020FF920F931F93CF93DF93EC018B01488181
S113503059816A817B814F73552766277727DB0166
S1135040CA010196A11DB11DFE01E40FF51F20E860
S113505020A789339105A105B10570F448E350E018
S1135060481B590B9E01285D3F4F820F931F60E040
S113507070E00E9401291AC07E0128E2E20EF11CB0
S113508040E450E0481B590B8E0D9F1D60E070E01A
S11350900E940129B701CE010E944F04009709F034
S11350A09BC088E3F70111928A95E9F748815981F9
S11350B06A817B816A017B010B2EBDE1F694E79442
S11350C0D794C794BA95D1F7B02D8C819D81AE81C8
S11350D0BF81880F991FAA1FBB1F880F991FAA1F82
S11350E0BB1F880F991FAA1FBB1F8C299D29AE299E
S11350F0BF29440F551F661F771F440F551F661F96
S1135100771F440F551F661F771FFE01E05AFF4F9C
S1135110B0833196A0833196908331968083319603
S11351207083319660833196508331964083BE01FB
S1135130685D7F4FCE010E944F04009709F04CC078
S11351408B85F80180838A8581838985828388851C
S113515083838F8584838E8585838D8586838C85E3
S113516087838B8980878A898187898982878889CF
S113517083878F8984878E8985878D8986878C89A3
S113518087878B8D808B8A8D818B898D828B888D8F
S1135190838B8F8D848B8E8D858B8D8D868B8C8D63
S11351A0878B8BA1808F8AA1818F89A1828F88A10F
S11351B0838FFE01E859FF4F80819181009751F45C
S11351C02FA1F801248F2EA1258F2DA1268F2CA18C
S11351D0278F02C080E090E0DF91CF911F910F9163
S11351E0FF90EF90DF90CF9008950E940D280895CE
S11351F0FB01DC0102C001900D9241505040D8F7F0
S11352000895DC0101C06D9341505040E0F70895CA
S1135210AEE0B0E0EEE0F9E20C94C92B0D891E89F2
S113522086E08C831A8309838FEF9FE79E838D83A7
S1135230AE01475E5F4F6F89788DCE0101960E9463
S11352402A29EF81F885E00FF11F10822E96E4E001
S11352500C94E52BABE0B0E0E0E3F9E20C94BB2B5B
S11352606C017B018A01FC0117821682838181FF14
S1135270CCC1CE0101963C01F6019381F70193FD67
S1135280859193FF81917F01882309F4BAC1853206
S113529039F493FD859193FF81917F01853229F43F
S11352A0B60190E00E94212BE7CF912C212C312CC8
S11352B0FFE1F315D8F08B3279F038F4803279F0CD
S11352C08332A1F4232D20611DC08D3261F080331F
S11352D069F4232D216016C0832D8260382EE32DBE
S11352E0E4603E2E2AC0F32DF8601DC037FC2DC0AB
S11352F020ED280F2A3040F08E32B9F436FC81C1FB
S1135300232D2064322E19C036FE06C08AE0989EF2
S1135310200D1124922E11C0EAE02E9E200D11249E
S1135320222EF32DF0623F2E08C08C3621F4832DFB
S11353308068382E02C0883641F4F70193FD8591C8
S113534093FF81917F018111B3CF982F9F7D955455
S1135350933028F40C5F1F4F9FE399830DC083366D
S113536031F0833771F0833509F059C021C0F80159
S1135370808189830E5F1F4F88248394912C53016D
S113538013C02801F2E04F0E511CF801A080B18037
S113539036FE03C0692D70E002C06FEF7FEFC501D8
S11353A00E94162B4C018201F32DFF773F2E16C06D
S11353B0280122E0420E511CF801A080B18036FE83
S11353C003C0692D70E002C06FEF7FEFC5010E943A
S11353D00B2B4C01F32DF0683F2E820133FC1BC0D4
S11353E0822D90E088169906B0F4B60180E290E030
S11353F00E94212B2A94F4CFF50137FC859137FEC6
S113540081915F01B60190E00E94212B21102A9422
S113541021E0821A91088114910471F7E8C084365E
S113542011F0893641F5F80137FE07C060817181BA
S1135430828193810C5F1F4F08C060817181072EA8
S1135440000C880B990B0E5F1F4FF32DFF763F2E38
S113545097FF09C090958095709561957F4F8F4F08
S11354609F4FF0683F2E2AE030E0A3010E945D2B9D
S1135470882E861845C0853731F4232D2F7EB22E11
S11354802AE030E025C0932D997FB92E8F36C1F0E4
S113549018F4883579F0B5C0803719F0883721F0D1
S11354A0B0C0E92FE061BE2EB4FE0DC0FB2DF46048
S11354B0BF2E09C034FE0AC0292F2660B22E06C0B2
S11354C028E030E005C020E130E002C020E132E015
S11354D0F801B7FE07C060817181828193810C5FFE
S11354E01F4F06C06081718180E090E00E5F1F4F06
S11354F0A3010E945D2B882E8618FB2DFF773F2E7B
S113550036FE0DC0232D2E7FA22E891458F434FEAE
S11355100BC032FC09C0832D8E7EA82E05C0B82C8A
S1135520A32C03C0B82C01C0B92CA4FE0FC0FE01EB
S1135530E80DF11D8081803321F49A2D997EA92EE6
S113554009C0A2FE06C0B394B39404C08A2D867821
S113555009F0B394A3FC11C0A0FE06C0B21488F4F1
S1135560280C922C9B180EC0B21460F4B60180E291
S113557090E00E94212BB394F7CFB21418F42B18A7
S113558002C0982C212CA4FE10C0B60180E390E048
S11355900E94212BA2FE17C0A1FC03C088E790E063
S11355A002C088E590E0B6010CC08A2D867859F0D7
S11355B0A1FE02C08BE201C080E2A7FC8DE2B6012D
S11355C090E00E94212B891438F4B60180E390E026
S11355D00E94212B9A94F7CF8A94F301E80DF11DD0
S11355E08081B60190E00E94212B8110F5CF22200A
S11355F009F442CEB60180E290E00E94212B2A9465
S1135600F6CFF6018681978102C08FEF9FEF2B962C
S1135610E2E10C94D72BFC0105906150704001101D
S1135620D8F7809590958E0F9F1F0895FC016150C7
S1135630704001900110D8F7809590958E0F9F1FB0
S113564008950F931F93CF93DF93FB01238121FDD3
S113565003C08FEF9FEF2CC022FF16C046815781F5
S1135660248135814217530744F4A081B1819D01FF
S11356702F5F3F4F318320838C93268137812F5FA7
S11356803F4F3783268314C08B01EC01FB01008458
S1135690F185E02D0995892BE1F6D80116968D91B7
S11356A09C911797019617969C938E931697CE010B
S11356B0DF91CF911F910F910895FA01AA27283005
S11356C051F1203181F1E8946F936E7F6E5F7F4FCB
S11356D08F4F9F4FAF4FB1E03ED0B4E03CD0670F47
S11356E0781F891F9A1FA11D680F791F8A1F911D9A
S11356F0A11D6A0F711D811D911DA11D20D009F4EA
S113570068943F912AE0269F11243019305D31932B
S1135710DEF6CF010895462F4770405D4193B3E014
S11357200FD0C9F7F6CF462F4F70405D4A3318F0BB
S1135730495D31FD4052419302D0A9F7EACFB4E06C
S1135740A6959795879577956795BA95C9F7009724
S11357506105710508959B01AC010A2E06945795C5
S1135760479537952795BA95C9F7620F731F841F1C
S1135770951FA01D08952F923F924F925F926F92B2
S11357807F928F929F92AF92BF92CF92DF92EF92CD
S1135790FF920F931F93CF93DF93CDB7DEB7CA1B4E
S11357A0DB0B0FB6F894DEBF0FBECDBF09942A8879
S11357B0398848885F846E847D848C849B84AA8421
S11357C0B984C884DF80EE80FD800C811B81AA81AE
S11357D0B981CE0FD11D0FB6F894DEBF0FBECDBF79
S10B57E0ED010895F894FFCFD8
S11357E800000000000000000000000000000100AC
S11357F80000000000000000000202020200000095
S11358082530325800496E7075743A0048617368DF
S11358183A000A0048656C6C6F20544C5321009878
S11358282F8A4291443771CFFBC0B5A5DBB5E95B3C
S1135838C25639F111F159A4823F92D55E1CAB9836
S1135848AA07D8015B8312BE853124C37D0C557425
S11358585DBE72FEB1DE80A706DC9B74F19BC1C1FC
S1135868699BE48647BEEFC69DC10FCCA10C246F8B
S11358782CE92DAA84744ADCA9B05CDA88F976523A
S1135888513E986DC631A8C82703B0C77F59BFF3E6
S11358980BE0C64791A7D55163CA06672929148521
S11358A80AB72738211B2EFC6D2C4D130D38535481
S11358B8730A65BB0A6A762EC9C281852C7292A1C5
S11358C8E8BFA24B661AA8708B4BC2A3516CC719C8
S11358D8E892D1240699D685350EF470A06A10167C
S11358E8C1A419086C371E4C774827B5BCB034B32B
S11358F80C1C394AAAD84E4FCA9C5BF36F2E68EE2B
S1135908828F746F63A5781478C8840802C78CFAE8
S1135918FFBE90EB6C50A4F7A3F9BEF27871C600F1
S9030000FC
