S01000006F6E6C696E6531322E737265632C
S11300000C942A000C943F000C943F000C943F0085
S11300100C943F000C943F000C943F000C943F0060
S11300200C943F000C943F000C943F000C943F0050
S11300300C943F000C943F000C943F000C943F0040
S11300400C943F000C943F000C943F000C943F0030
S11300500C943F0011241FBECFE5D8E0DEBFCDBF16
S113006010E0A0E6B0E0EEE7F7E002C005900D92E4
S1130070AC3AB107D9F70E94CB010C94BD030C94A0
S1130080000061E08AE00E941F0361E08BE00E94AF
S11300901F0361E08CE00E941F0361E08DE00C947B
S11300A01F03DF92EF92FF920F931F93CF93DF937F
S11300B090E9E92E90E0F92ECAE0D4E560E08C2FB7
S11300C00E941F0300E010E089E1D82ED00E8D2D90
S11300D00E94A003811109C0F701E00FF11FD08134
S11300E08D2D0E94A0038823D9F30F5F1F4F043086
S11300F0110551F761E08C2F0E941F03CF5F84E04C
S1130100E80EF11CCE30D1F68D2FDF91CF911F91E7
S11301100F91FF90EF90DF900895CF93C82F60E088
S113012089E00E941F036C2F661F6627661F87E005
S11301300E941F03C6FB662760F98FE00E941F031D
S1130140C5FB662760F98FE10E941F03C4FB662785
S113015060F982E00E941F0361E088E00E941F03AF
S11301608FEC97E00197F1F700C0000060E088E0B1
S11301700E941F038FEC97E00197F1F700C0000085
S1130180C3FB662760F987E00E941F03C2FB662752
S113019060F98FE00E941F03C1FB662760F98FE1BD
S11301A00E941F036C2F617082E00E941F0361E0B4
S11301B088E00E941F038FEC97E00197F1F700C0DD
S11301C0000060E088E00E941F038FEC97E0019735
S11301D0F1F700C00000CF910895CF93C82F61E0DC
S11301E089E00E941F036C2F661F6627661F87E045
S11301F00E941F03C6FB662760F98FE00E941F035D
S1130200C5FB662760F98FE10E941F03C4FB6627C4
S113021060F982E00E941F0361E088E00E941F03EE
S11302208FEC97E00197F1F700C0000060E088E0F0
S11302300E941F038FEC97E00197F1F700C00000C4
S1130240C3FB662760F987E00E941F03C2FB662791
S113025060F98FE00E941F03C1FB662760F98FE1FC
S11302600E941F036C2F617082E00E941F0361E0F3
S113027088E00E941F038FEC97E00197F1F700C01C
S1130280000060E088E00E941F038FEC97E0019774
S1130290F1F700C00000CF9108952FE788E391E0C3
S11302A0215080409040E1F700C0000082E00E94AD
S11302B08D0088E20E948D008CE00E948D0081E018
S11302C00E948D008FEC97E00197F1F700C00000C9
S11302D086E00C948D000C94ED000F931F93CF9344
S11302E08C01C0E0F801EC0FF11D8081882321F01E
S11302F00E94ED00CF5FF6CFCF911F910F9108952B
S1130300811103C0862F806804C0813021F480EC01
S1130310860F0C948D00089581E00E948D008FEC6F
S113032097E00197F1F700C0000008950F931F9321
S1130330CF93DF93C7E0D0E0082F10E0C8010C2E64
S113034002C0959587950A94E2F78170805D0E94BA
S1130350ED00219798F7DF91CF911F910F910895A8
S11303600F931F93CF93DF938B01880F880F880F10
S1130370805C0E948D00E801085F1F4F89910E94F4
S1130380ED00C017D107D1F780E8DF91CF911F911D
S11303900F910C948D00CF93DF93CDB7DEB76097A8
S11303A00FB6F894DEBF0FBECDBF0E9441020E947B
S11303B041000E944D0188E0E0E6F0E0DE0119967C
S11303C001900D928A95E1F788E0E8E6F0E0DE011D
S11303D0119601900D928A95E1F7BE01675F7F4FF8
S11303E084E00E94B001BE016F5F7F4F86E00E94EF
S11303F0B00160E080E00E948001E12CF12C00E07B
S11304008AE0D82E0E945100182F8435D9F380ED4C
S1130410810F8A30F0F401110CC060E080E00E948A
S1130420800180EA90E00E946D0160E080E00E941B
S11304308001DE9CC001DF9C900D11247C0120E32F
S1130440E21AF108E10EF11C812F0E946B0101E018
S1130450D9CF1D3359F460E081E00E9480018E2DD4
S11304600E949601E12CF12C00E0CCCF133629F444
S11304700E948C01E12CF12CC5CF812F0E946B01CD
S1130480C1CFE0E7F0E040E081E090E05191342F0B
S1130490369536953695242F2770513009F443C08C
S11304A020F0523009F482C0C5C0323001F133303B
S11304B061F1313071F05AB3BC0102C0660F771F8D
S11304C02A95E2F79B01352F322B3ABB3BB320959B
S11304D03DC057B3BC0102C0660F771F2A95E2F7EF
S11304E09B01352F322B37BB38B320953EC054B314
S11304F0BC0102C0660F771F2A95E2F79B01352FD6
S1130500322B34BB35B320953FC051B3BC0102C07C
S1130510660F771F2A95E2F79B01352F322B31BBEB
S113052032B3209541C0323011F1333081F1313092
S113053079F05AB3BC0102C0660F771F2A95E2F71F
S11305409B012095352F32233ABB3BB3232342C072
S113055057B3BC0102C0660F771F2A95E2F79B01CF
S11305602095352F322337BB38B3232343C054B3EC
S1130570BC0102C0660F771F2A95E2F79B01209504
S1130580352F322334BB35B3232325BB53C051B39A
S1130590BC0102C0660F771F2A95E2F79B012095E4
S11305A0352F322331BB32B3232343C0323021F100
S11305B0333089F1313081F05AB3BC0102C0660F87
S11305C0771F2A95E2F79B01362F309535233ABBE6
S11305D03BB3232B2BBB2EC057B3BC0102C0660F09
S11305E0771F2A95E2F79B01362F3095352337BBC9
S11305F038B3232B28BB1EC054B3BC0102C0660F02
S1130600771F2A95E2F79B01362F3095352334BBAB
S113061035B3232BBACF51B3BC0102C0660F771F89
S11306202A95E2F79B01362F3095352331BB32B33F
S1130630232B22BB4F5F403209F028CF0895982F17
S113064096959695969587706130C1F5913091F0A5
S113065028F09230D9F0933029F108954BB321E07A
S113066030E0B90102C0660F771F8A95E2F7CB012B
S1130670842B3AC048B321E030E0B90102C0660FD0
S1130680771F8A95E2F7CB01842B3CC045B321E068
S113069030E0B90102C0660F771F8A95E2F7CB01FB
S11306A0842B3EC042B321E030E0B90102C0660FA2
S11306B0771F8A95E2F7CB01842B40C061113FC0BC
S11306C09130A1F028F09230F9F0933059F1089567
S11306D04BB321E030E0B90102C0660F771F8A9561
S11306E0E2F7CB01809584238BBB089548B321E0C6
S11306F030E0B90102C0660F771F8A95E2F7CB019B
S11307008095842388BB089545B321E030E0B90186
S113071002C0660F771F8A95E2F7CB018095842388
S113072085BB089542B321E030E0B90102C0660FF1
S1130730771F8A95E2F7CB018095842382BB0895C5
S1130740282F2770869586958695813049F030F05C
S1130750823041F0833079F480B305C089B303C09B
S113076086B301C083B390E002C0959587952A951E
S1110770E2F78170089580E00895F894FFCFB9
S113077EFFFFFFFFFFFFFFFFFF00FF00FF00FF0073
S113078E0000000000000000000000000000010056
S113079E000000000000000000020202020000003F
S11307AE3738392F3435362A3132332D63303D2BD9
S10F07BE202020202020202020200000EB
S9030000FC
